:020000040800F2
:10000000009000206D270008C1240008C3240008C8
:1000100000000000000000000000000000000000E0
:10002000000000000000000000000000C5240008DF
:100030000000000000000000C7240008C9240008D8
:10004000BD27000800000000BD270008BD270008EC
:10005000BD270008BD270008BD270008BD270008F0
:1000600000000000BD270008BD270008BD270008CC
:10007000D1240008BD270008BD27000800000000AB
:10008000BD270008BD270008BD270008BD270008C0
:10009000BD270008BD270008BD270008BD270008B0
:1000A000BD270008BD270008BD270008BD270008A0
:0800B000BD270008BD27000870
:1000B80010B5064C2378002B07D1054B002B02D036
:1000C800044800E000BF0123237010BDB8090020D8
:1000D80000000000ACA70008044B10B5002B03D0AB
:1000E8000349044800E000BF10BDC04600000000FE
:1000F800BC090020ACA70008002243088B4274D337
:1001080003098B425FD3030A8B4244D3030B8B4210
:1001180028D3030C8B420DD3FF22090212BA030C19
:100128008B4202D31212090265D0030B8B4219D3FA
:1001380000E0090AC30B8B4201D3CB03C01A52411A
:10014800830B8B4201D38B03C01A5241430B8B4262
:1001580001D34B03C01A5241030B8B4201D30B034B
:10016800C01A5241C30A8B4201D3CB02C01A524172
:10017800830A8B4201D38B02C01A5241430A8B4235
:1001880001D34B02C01A5241030A8B4201D30B021E
:10019800C01A5241CDD2C3098B4201D3CB01C01A38
:1001A800524183098B4201D38B01C01A5241430942
:1001B8008B4201D34B01C01A524103098B4201D330
:1001C8000B01C01A5241C3088B4201D3CB00C01A9D
:1001D800524183088B4201D38B00C01A5241430815
:1001E8008B4201D34B00C01A5241411A00D201463A
:1001F800524110467047FFE701B5002000F0F0F8C3
:1002080002BDC0460029F7D076E7704703460B4386
:100218007FD4002243088B4274D303098B425FD3F7
:10022800030A8B4244D3030B8B4228D3030C8B4223
:100238000DD3FF22090212BA030C8B4202D3121209
:10024800090265D0030B8B4219D300E0090AC30BDE
:100258008B4201D3CB03C01A5241830B8B4201D38B
:100268008B03C01A5241430B8B4201D34B03C01A74
:100278005241030B8B4201D30B03C01A5241C30AEC
:100288008B4201D3CB02C01A5241830A8B4201D35D
:100298008B02C01A5241430A8B4201D34B02C01A47
:1002A8005241030A8B4201D30B02C01A5241CDD2EC
:1002B800C3098B4201D3CB01C01A524183098B4237
:1002C80001D38B01C01A524143098B4201D34B0120
:1002D800C01A524103098B4201D30B01C01A524183
:1002E800C3088B4201D3CB00C01A524183088B420A
:1002F80001D38B00C01A524143088B4201D34B00F3
:10030800C01A5241411A00D2014652411046704764
:100318005DE0CA0F00D04942031000D34042534069
:1003280000229C4603098B422DD3030A8B4212D329
:10033800FC22890112BA030A8B420CD3890192115B
:100348008B4208D3890192118B4204D389013AD098
:10035800921100E08909C3098B4201D3CB01C01A6D
:10036800524183098B4201D38B01C01A5241430980
:100378008B4201D34B01C01A524103098B4201D36E
:100388000B01C01A5241C3088B4201D3CB00C01ADB
:10039800524183088B4201D38B00C01A5241D9D2F3
:1003A80043088B4201D34B00C01A5241411A00D274
:1003B8000146634652415B10104601D34042002B70
:1003C80000D54942704763465B1000D3404201B5EF
:1003D800002000F005F802BD0029F8D016E77047A4
:1003E8007047C0468446100062468C461900634632
:1003F80000E0C0461FB500F0F9FF002801D4002135
:10040800C8421FBD10B500F049FF4042013010BD81
:1004180010B500F0EBFF002801DB002010BD012023
:1004280010BDC04610B500F0E1FF002801DD002036
:1004380010BD012010BDC04610B500F071FF0028A6
:1004480001DC002010BD012010BDC04610B500F031
:1004580067FF002801DA002010BD012010BDC0464A
:10046800002B11D1002A0FD1002900D1002802D079
:100478000021C943080007B4024802A140180290AD
:1004880003BDC0465DFFFFFF03B4684601B502988F
:1004980000F006F8019B9E4602B00CBC7047C046AF
:1004A800F0B557464E464546DE46E0B504000D0019
:1004B8009246994683B08B4230D82DD04946504653
:1004C80001F0BEFE29000600200001F0B9FE331A33
:1004D8009846203B9B4633D45A465346934042465F
:1004E8001F00534693401E00AF423AD8AF4200D196
:1004F80078E05B46A41BBD41002B00DA75E00022C2
:1005080000230092019301235A469340019301234B
:1005180042469340009328E08242CFD9002200232C
:10052800009201930C9B002B01D01C605D60009829
:10053800019903B0F0BCBB46B246A946A046F0BD3F
:10054800424620239B1A5246DA40414613004A4647
:100558008A40170042461F43534693401E00AF424D
:10056800C4D900220023009201934346002BD9D01E
:10057800FB0772081A4346467B080EE0AB4201D1DE
:10058800A2420CD8A41A9D41012024196D410021D2
:10059800013E24184D41002E06D0AB42EED9013E53
:1005A80024196D41002EF8D1009801995B46001975
:1005B8006941002B24DB2B005A464446D3402A00CD
:1005C800E2401C005B461500002B2ADB26009E40FB
:1005D800330026004746BE403200801A99410090F9
:1005E80001919FE7A342BCD883E74246202300211C
:1005F8009B1A0022009101920122DA40019286E7BB
:10060800424620239B1A2A0046469A402300F3407C
:10061800444613432A00E2401C005B461500002BA9
:10062800D4DA42462F002023260097409B1ADE404A
:100638003B003343CDE7C046F0B54F464646D64665
:100648000D000400C0B51F0011002803620F400A06
:1006580010437A00520DE3003C039146640AFA0FF6
:100668004F0F6E0027439246B846760DED0FC9002E
:10067800954200D199E04C46341BA446002C00DC7E
:100688007CE04A46002A00D1B8E0C54A964200D12B
:100698001CE180223C0012041443A0466246382A1A
:1006A80000DD61E11F2A00DDCCE164462022121B37
:1006B800444694400F00A14664469140E7404C46AA
:1006C8004A1E91413C43424621436446E240801A17
:1006D8005C1AA3429B415F42C71B3B0200D4D0E097
:1006E8007F027F0A002F00D1FFE0380001F08AFD69
:1006F80001000839202322005B1A8F40DA408C4021
:100708001743B14200DAFFE0891B4B1C1F2B00DDA9
:10071800A8E020223900D21A200094409140D84005
:10072800621E9441DF40002601430C43630709D051
:100738000F232340042B05D0231DA342A441644268
:100748003F191C003B0200D49EE0954B01369E42A7
:1007580000D1B7E0934AE40817407B0771057F0290
:1007680023433F0B4A0D12053A43ED072A4318006D
:100778001100E0BCBA46B146A846F0BD002C4BD0EB
:100788004C46A41BA446002E00D023E104001C43C1
:1007980000D1AFE16246541E012A00D115E2804D16
:1007A800AC4500D1C8E1A4461BE14A46B21A9446BA
:1007B800002A00DCACE04A46002A43D0784A964238
:1007C80000D1AFE180223C0012041443A0466246E7
:1007D800382A67DC1F2A00DC5FE14746203AD74009
:1007E8006246202A05D064464022121B44469440A3
:1007F80021434A1E91410C003C4357E03A000A430A
:1008080000D105E12200013A012C00D182E1644CBB
:10081800A4455BD0944641E7634C771C274200D03F
:10082800C4E004001C43002E00D069E1002C00D174
:10083800BFE144460C4300D0D0E14207DB08134334
:10084800C00829E03A000A4300D170E162466446D4
:10085800013A012C00D1E0E0514CA44500D161E1FE
:100868009446B4E73A001F39CA401100202B03D040
:100878004022D31A9F403C43631E9C410027002618
:100888000C43630700D053E7B446E4087B072343CF
:10089800F808434A94451DD06246070352053F0BAA
:1008A800520D60E744460C43621E9441E4189C4292
:1008B8009B415F423F183B02E3D5394B01369E42CC
:1008C80000D0B5E03200002700234CE74207DB08E0
:1008D8001343C0081A00024300D1E1E180273F0317
:1008E80007433F032E4A3F0B3DE7200001F08AFCF7
:1008F800010018311F2900DCFCE608388440270075
:100908000024B14200DBFFE6264A761A17400DE7BD
:10091800002A2FD04A46921B9446002E00D1ADE003
:100928001F4A914500D10FE180221204104362460C
:10093800382A00DD0FE11F2A00DD80E1644620220D
:100948001E00121B6746040093409440FE405A1E46
:100958009341F84034431C43804464188C42BF419F
:100968007F424E464744A6E742460A4311004A1EC4
:100978009141ADE60C4C721C224200D0A1E002006D
:100988001A43002E00D0FAE0002A00D145E13A00CF
:100998000A4300D046E14207DB081343C0087BE75F
:1009A800FF070000FFFF7FFFFE07000047465C1AB5
:1009B800C21BA342BF417F42B94617004A46BF1A2D
:1009C8003A0200D58DE023003B4300D08AE60020A0
:1009D800002561E7B44CA14500D1ADE08024240492
:1009E80020436446382C3DDC62461F2C00DDB7E00E
:1009F80020251E002D1B0400AB40AC40D640D04043
:100A080042465D1EAB413443121A904623432CE004
:100A18004207DB081343C0083BE75C189C429B4134
:100A280040445B42C71801263B0200D429E702264E
:100A38009E4A63081740012214401C43FB071C43CD
:100A48007F0873E64446203AD4406246202A05D0FF
:100A580067464022D21B4746974039434A1E914178
:100A6800214335E60343581E8341CC1AA142BF41B6
:100A780043467F4255464E46DF1B2EE602001A4388
:100A880000D1BDE062466446013A012C00D1E5E0A0
:100A9800854CA44558D0944649E764462022121B49
:100AA800444694400F00A14664469140E7404C46B6
:100AB8004A1E91413C4342460C436146CA40801855
:100AC800F4E6794CA24200D1FDE6591899429B41BF
:100AD80040445F42C719FC07490816000C437F08C9
:100AE800CFE6CC1AA142BF4143467F42181A554669
:100AF800C71BF7E5C9087B0755460B43F808C8E646
:100B0800002C00D081E043460B4315D180200025FE
:100B18000003E3E65C1AA3429B41C71B5B42012624
:100B2800FF1ADAE54207DB081343C008D2E642079A
:100B3800DB081343C008ACE643464246C9085B07D6
:100B480055460B43D008C5E6434642465B07C908ED
:100B58000B43D008BEE603431C00631E9C41FCE621
:100B68000200203CE24014006246202A03D04025BF
:100B7800AD1AA8400343581E8341234375E7002A52
:100B8800E2D03A000A43CDD04207DB081343802263
:100B9800C0081203104206D0FC08144203D12000FA
:100BA800CB087A0713435A0FDB005207DB081343BD
:100BB80090E643460B4300D109E743464246C9083D
:100BC8005B0755460B43D00866E6CC1AA14289411B
:100BD8003F1A4942554601267F1A7EE542465C1A6D
:100BE800871AA34292415242BF1A3A023DD5CC1A03
:100BF800A1428941434649421F1A55467F1A95E545
:100C08007B07C9080B43F80843E64446DB080C4356
:100C180030D142071343C0085CE67B07C9080B4381
:100C2800F80839E65C189C429B4140445B42C7186F
:100C38003B0200D425E61D4B01261F4021E6040097
:100C4800203AD4406246202A04D040226646921BAD
:100C5800904003435A1E93411C437EE65C188C4225
:100C68008941404449424718DDE623003B4300D10F
:100C7800ADE606E6440723438024C0082403204247
:100C880008D04246D608264204D155463000CB0843
:100C980051070B435A0FDB00DB085207134319E6D1
:100CA8000023014A1F005EE5FF070000FFFF7FFFEA
:100CB800F0B557464E464546DE46E0B58146050046
:100CC8000C03480092461F0085B0240B400DCE0F40
:100CD800002800D156E1D44B984200D172E16B0F45
:100CE800E4001C4380231B0423439846CF4BED00AC
:100CF8009B4600239946834400933C037B0050465F
:100D0800240B5B0DFF0F002B00D11FE1C64A934255
:100D180000D162E1C549420F8C46E40059461443AC
:100D2800802263441204CB1A14439B46C20000205D
:100D380033007B409A464B460F2B27D8BC499B0073
:100D4800CB589F46B246009B022B16D0032B00D1EE
:100D58008EE2012B00D0D9E0002300240025524662
:100D68001B052343D20713432800190005B0F0BC24
:100D7800BB46B246A946A046F0BD00240025AA4BB2
:100D8800EDE7BA46A04615000090DCE7444500D2DE
:100D9800C7E100D1C2E101235B429C462E004046D8
:100DA8000025E3442302140E1C431B0C994623041C
:100DB8001F0C1202494600920197FFF723FA02001E
:100DC8007A430B04310C804619438A4207D9012320
:100DD8005B429C460919E0448C4200D807E2881A15
:100DE8004946FFF70FFA09048C4631046646019A12
:100DF800090C4243030031438A4204D90919013BD3
:100E08008C4200D8EDE1881A424612041A439046F3
:100E18004146009B0E041B0C1F000293009B360CDE
:100E28001B04190C0B007343120C7E4303915143AE
:100E38007A431F0CBC4676186644B14203D9802118
:100E480049028C466244310C8A1831041E04360C5F
:100E58008E19904202D312D1B54210D24346591E80
:100E6800009B9C4665441F009D429B415B421B19A9
:100E7800C018844200D2A0E100D19BE18846AE1B95
:100E8800B542AD41801A6D42401B844200D1D5E184
:100E98004946FFF7B7F9019A0B044243310C0500A4
:100EA80019438A4200D96CE1881A4946FFF7AAF922
:100EB800019A360442430904360C03000E43B24239
:100EC80000D953E10398B61A02002D041D43029F6E
:100ED8002B041B0C5A437B439C46290C4843130C98
:100EE800844463447943984203D98020400284466D
:100EF8006144180C12041B04120C41189B188E42F2
:100F080000D2FFE000D1FAE001231D43494A5A44C8
:100F1800002A00DCAAE06B0700D03DE1ED0843465B
:100F2800DB0106D54246444B1A4090468022D20047
:100F38005A44424B9A4200DD1FE743465B071D4374
:100F4800434652055C02240B530D08E752462243E0
:100F580000D17BE0002C00D1FAE0200001F052F92A
:100F680002000B3A1D2301009B1A52460839DA4049
:100F78008C40144352468A40314B58449B46834424
:100F88000020D5E64B462343984644D0002C00D198
:100F9800CEE0200001F036F9010002000B391D23D4
:100FA8005B1A49461000D940083884400B004D466A
:100FB8002343984685402348831A9B460023994635
:100FC80000939AE64B46234398461DD10823994639
:100FD800063B0025834600938FE65246224309D1FB
:100FE800022349461943184B89469C46002402208F
:100FF800E3449DE603234A461A43134B91469C4615
:1010080052460320E34493E60C239946093BA04645
:101018008346009371E60423994600239B460133D7
:101028000025009369E6C046FF07000001FCFFFFAA
:10103800C8A70008FF030000FFFFFFFEFE0700002F
:10104800F30300000DFCFFFF01F8FFFF49460123F1
:1010580019438946002401206AE6002380249A4621
:1010680000258A4B24037AE601256D4201239B1A49
:10107800382B00DD70E61F2B00DCBFE01F21494242
:101088008A1A4146D1400A00202B04D04146804BA1
:101098005B4499400D436B1E9D4107232A431D0065
:1010A80000241540134200D1D4E00F210023114041
:1010B800042900D1CBE0111D9142924152429B1864
:1010C8000A00190200D4C2E001230024002546E6E4
:1010D800802341461B03194208D01C4206D11C43F9
:1010E8002403BA461500694B240B38E6802443468E
:1010F80024031C432403B246644B240B2FE6002B25
:1011080000D103E7A619681EA64200D28DE08E42E0
:1011180000D2A3E000D1B3E00500F5E6AA4200D969
:1011280039E64346DE0758086B081E43ED0739E6E3
:10113800484601F067F801000200153120321C29E9
:1011480000DC2CE74B46083883400025984632E7F8
:1011580001F058F803001A00153220301C2A00DC70
:1011680000E75446083B00229C4005E73619013B3E
:10117800B44200D9A6E6B24200D8A3E6831E3619C7
:10118800A0E60919013D8C4200D98DE68A4200D8B3
:101198008AE6851E091987E60F232B40042B00D108
:1011A800BCE605235B42AB429B4104355B42ED083C
:1011B8009844B4E6AF4200D960E6824204D800D031
:1011C8005CE6AE4200D859E602235B429C46009B8F
:1011D800E0449C4665449D429B415B421B19C018F4
:1011E8004DE68A4200D80EE6831E09190BE68A42AC
:1011F80000D8F4E5831E98460919F0E5254928002A
:1012080059448D4042468A40691E8D414146D84026
:10121800D94002432A430B00510700D151E70F215F
:101228001140042900D046E74BE705008E4200D064
:101238006AE6009A934200D066E667E6164A5A4480
:10124800002A00DC10E701230025984467E65D07C3
:101258005B021C0BD2080023154380E50098023D71
:1012680042008242BF417F423C1936190092DDE7B5
:101278008024434624031C432403044B240B6EE5BB
:10128800009A9A42EAD30500D3E7C046FF07000058
:101298003E0400001E040000FF030000F0B54E46A7
:1012A8004546DE4657469046E0B517001A03120B2E
:1012B8000500844619480E034C0091465A00DB0F7E
:1012C8009B46360B640DC90F520D844219D08242D9
:1012D80010D0012094420ED14E450CD10120C445B6
:1012E80009D1594517D0002C05D130002843431E99
:1012F800984100E00120F0BCBB46B246A946A04692
:10130800F0BD330001202B43F5D1A242F3D14B4667
:101318003B43F0D1E2E70020EDE7C046FF070000BD
:10132800F0B54746CE460400180016001B031B0BF9
:101338002D4D4A00994680B543000F03A446B04698
:101348003F0B520DC90F5B0DC00FAA4221D0AB4213
:1013580013D0002A22D13C43002B02D14D462E4304
:1013680022D0002C10D0814222D00220013908401E
:101378000138C0BCB946B046F0BD4D462E4329D110
:10138800002AF0D13C43EED10028F2D1012040429E
:10139800EFE73D0025431DD19342EED0002BE2D16B
:1013A8004C462643DFD1E0E70020002CE1D0DCE703
:1013B8009A420ADCE8DB4F45D7D80ED000204F45CB
:1013C800D7D20029E2D00800D3E743425841400071
:1013D8000138CEE702204042CBE7C445C5D80020FB
:1013E800C445C6D2EDE7C046FF070000F0B5474642
:1013F800CE460400180016001B031B0B2C4D4A0098
:10140800994680B543000F03A446B0463F0B520DE2
:10141800C90F5B0DC00FAA420DD0AB4210D0002AF5
:1014280027D13C43002B11D14D462E430ED100202D
:10143800002C15D00EE03D00254310D1934218D161
:101448004D462E430BD1002A02D13C43002C0BD031
:10145800814214D0022001390840013800E00220FE
:10146800C0BCB946B046F0BD0028F9D101204042C1
:10147800F6E7002BECD14C462643E9D1EAE79A423D
:1014880004DD4342584140000138E9E79A42EBDB6A
:101498004F45DFD806D000204F45E1D20029E5D0DE
:1014A8000800DDE7C445D5D80020C445D8D2F5E703
:1014B800FF070000F0B557464E464546DE46E0B504
:1014C80098460C034B000600924687B0240B5B0D30
:1014D800CF0F002B00D15CE1D94A934200D175E1CE
:1014E800420FE4001443802212041443D54AC50075
:1014F800944663440093002399469B4643464246DC
:101508001E03D20F5B0050469046360B5B0D00D190
:1015180020E1CB4A934200D162E1CA49420F8C468E
:1015280000996344F6008C46164380229C441204BA
:1015380063461643C20000200093009943460131D8
:101548008C4649467B4001930F2926D8BE4B89001B
:1015580059588F46434601933400150083465B462D
:10156800022B16D0032B00D103E2012B00D0CDE0D3
:10157800002200240025019B12052243DB071A43A1
:101588002800110007B0F0BCBB46B246A946A046E9
:10159800F0BD00240025AA4AEDE7280C2D042D0CE7
:1015A8002B00110C1204120C5343984613002F0001
:1015B800434399464F434F44BB4647460B003F0CB5
:1015C800BA464343DA440293D14504D980277F02BF
:1015D800B9464B44029353461B0C9B4653461F0483
:1015E80043461B041B0C98463B0043440493330CAE
:1015F8003604360C984633004343994643464343E2
:101608002F009A46434677435D43380C4D444519AD
:10161800A94503D980235B029946CA443F04280C94
:101628003F0C2D04ED19270C2404240C0300200082
:1016380050437A4391463A0053440593030C9A4623
:101648004A43614349445144AB44894503D9802303
:101658005B0299464A4400040B0C000C0904091863
:1016680020009946434670435C437E435F43030C26
:101678009846A41944444A440397A64204D98023AF
:101688005B029846474403972304029E9A46059BAB
:101698005E449846AE42AD4176188E4289410004B8
:1016A800000C504440446D424719B846934649429D
:1016B8008946C344D94498428041A845AD419345E1
:1016C8009241894589416D4240422843240C524247
:1016D80049420A43039B00198018C7184B46DC0D82
:1016E800049B75021D436A1E95414B46F60D7F0209
:1016F80035435A023C431543FB0100D41CE1012148
:101708006A080D401543E207154364084F496144D0
:10171800002900DCB0E06B0709D00F222A40042A18
:1017280005D02A1DAA42AD416D4264191500E30196
:1017380004D58021464AC90014406144454A914273
:1017480000DD26E76207ED08640249051543240B0E
:101758004A0D10E75246324300D17FE0002E00D1F7
:10176800DCE0300000F04EFD02000B3A1D230100C2
:101778009B1A52460839DA408E40164352468A4030
:10178800009B3549181A03008C46634400200093D7
:10179800D3E6250005434AD0002C00D1B0E0200054
:1017A80000F030FD010002000B391D2310005B1A08
:1017B8003100350008388440D94085400C4326481C
:1017C800831A0093002399469B4697E60500254314
:1017D80026D1082200930223002491469B468DE6D9
:1017E8005246009B324310D1154900268C4663446B
:1017F8004946009302231943894602209DE65B4629
:101808000197022B00D0ADE6C3E60D4A03209446AB
:1018180063444A46009303231A43914652468CE692
:101828000C2200930323050091469B4666E6042399
:10183800994600230093013300249B465EE6C04688
:10184800FF07000001FCFFFF08A80008FF030000D5
:10185800FFFFFFFEFE0700000DFCFFFF49460123C6
:10186800194389460026012067E6002380240025C5
:10187800434A019324037EE60120401A382800DDFC
:1018880076E61F285BDD1F2223005242511ACB4007
:101898001900202803D03B4A6244944025436A1E1D
:1018A80095412A000A4307210D00002415401142E2
:1018B8005BD00F2100241140042953D0111D9142FF
:1018C80092415242A4180A0023024BD50122002457
:1018D800002550E680231B031C4209D01E4207D175
:1018E80033431C0343461500240B254A019342E663
:1018F8008022120314432403214A240B01973AE659
:1019080000F080FC01000200153120321C2900DCA7
:101918004BE7340008380025844050E700F072FC9B
:1019280003001A00153220301C2A00DC1EE7564638
:10193800083B00229E4023E7009B9C46E6E61249AE
:10194800220061442E008D408A40C640691E8D41A8
:1019580032432A43C4405307B6D00F21114004290B
:10196800ACD1B1E765076402240BD2081543002205
:1019780001E68022120314432403014A240BFAE5EA
:10198800FF0700003E0400001E040000F8B557469B
:101998004E464546DE46E0B51E0017004A000B03DA
:1019A800520D5B0A9046420F1A43CD0FCD4C3103BE
:1019B800C300944670007A0F490AFF009A46B94658
:1019C800400DF60F1143A04200D1B1E0012256406C
:1019D800B346B54200D188E04246121A002A00DC1C
:1019E800AEE0002800D1C1E0BE48804500D151E1F9
:1019F800802000040143382A00DD7BE11F2A00DD36
:101A0800EEE120203E00801A0C00D640D1408740ED
:101A180062468440521A781E8741944634432743CD
:101A2800DC1BA3429B4162465B42D31A99464B4654
:101A38001B0200D418E14B465802430A99464B460C
:101A4800002B00D137E1484600F0DCFB01000839E3
:101A58002023220048465B1ADA4088408C404346DF
:101A68001043884500DD36E1C91A4B1C1F2B00DDE9
:101A7800EAE020222600D21A01009440DE40D84035
:101A880000239140621E94418146984631430C439D
:101A9800630709D00F232340042B05D0231DA3423D
:101AA800A4416442A1441C004B461B0200D4DEE062
:101AB80041468C4B0131994200D1E7E04B468A48B8
:101AC800E4080340180049055B07400223434A0D18
:101AD800040B1205ED0722432A4318001100F0BC3D
:101AE800BB46B246A946A046F8BD4246121A002A8D
:101AF80052DD002800D19CE0A04500D1CAE080203A
:101B080000040143382A00DD49E11F2A00DC97E17F
:101B180010000E002038C640202A04D04020821A27
:101B280091400F43B9464C46621E944134433AE112
:101B38000A003A4328D0B346B5422BD06B4A4244F8
:101B4800002A5DD042464446821A002C00D0F5E0B7
:101B580065461D4300D19CE1551E012A00D1FBE1D9
:101B6800604CA24200D1BDE12A00F0E008003843F1
:101B780000D1C3E0501E012A00D1A8E1594CA2426D
:101B880000D187E0020036E701225640B346B5424D
:101B980000D021E7554A4244002A00D1B5E0424628
:101BA8004446821A002C00D138E14E4EB04200D192
:101BB800DEE18026644636043443A446382A00DD34
:101BC80096E11F2A00DD24E22026B41AA2466446C4
:101BD8005646B440A1461C004E46D4402643340025
:101BE8005646B3405E1EB3411C436346D340C918F2
:101BF800E419BC42BF417F42B94680468944D8E0D7
:101C080040463B4C0130204200D0B4E0404600281A
:101C180000D044E16046184300D190E10800384301
:101C280000D0AAE16146DB0849070B436146CC08AE
:101C380027E00800384361D0501E012A00D139E15D
:101C4800A24227D002005DE702001F39CA401100F6
:101C5800202B03D04022D31A98400443631E9C4192
:101C68000023994698460C43630700D012E74B4679
:101C78004A46E4085B072343D408424619498A4286
:101C88000ED024035205240B520D22E70A0000242B
:101C980000231EE7DB086246520713436246D40856
:101CA8001A00224300D1FCE18022120314432403CA
:101CB8000C4A240B0DE7200000F0A4FA01001831AB
:101CC8001F2900DCC4E6083884404346200000246D
:101CD800884500DCC8E6044A5B1A104098468146ED
:101CE800D6E6C046FF070000FFFF7FFF01F8FFFFB1
:101CF800FE0700000F437A1E974191E66146DB0814
:101D080049070B436146CC08B8E74046D34C01303D
:101D1800204200D0A2E04046002800D001E1604601
:101D2800184300D15EE10800384300D05FE1614606
:101D3800DB0849070B436146CC08A2E7C84DA84217
:101D480000D1CFE0802564462D042C43A446382AD0
:101D580056DC1F2A00DDD1E020251E00AD1A64469E
:101D6800AB40AC40D6405D1EAB4134432343644690
:101D7800D440091B49E06046DC1B461AA342804157
:101D88004042814630004E46801B8146000276D490
:101D98004B46234300D052E60024002571E739431F
:101DA8000C00621E9441E4189C429B415B426344D0
:101DB80099464B461B0200D456E701239C46A84B84
:101DC800E044984538D04B46A64801220340180005
:101DD800630814401C43C3071C434308994657E64D
:101DE80010000E002038C640202A04D04020821A55
:101DF80091400F43B9464F467A1E974137430FE645
:101E080062461A4313005A1E9341FC1AA742BF4167
:101E18007F42CB1B99465D46804608E666461E43D0
:101E280000D1BEE0561E012A00D109E18C4CA24225
:101E380000D119E13200C1E642460024002348E6F9
:101E480020200C00801A3E0087408440D640781E2F
:101E58008741D14034433C438C44A4E7804A9042B4
:101E680000D1E9E0DF199F429B4161445B42C918F8
:101E7800CC077F084B08994680463C43F4E6FC1A99
:101E8800A742BF4163467F42C91ACB1B99465D46AC
:101E9800D5E5FF084B075D463B43CC08EEE66246B6
:101EA8001A4300D082E00B003B431BD1802400255D
:101EB8002403F9E6DC199C429B41614489465B4254
:101EC80099444B461B0244D401239846CCE6DC1BBC
:101ED8006246A3429B41511A5B42CB1A99460123A1
:101EE8009846A4E5FF084B075D463B43CC08D7E678
:101EF80062461A431400631E9C4179E61500644645
:101F0800203DEC40A046202A05D040256446AA1A68
:101F1800944023439A465446631E9C4143462343B8
:101F280073E762461A4323D00A003A4300D0A0E080
:101F38006246DB08520713436246D408B0E60B003A
:101F48003B4300D128E7FF084B075D463B43CC08DD
:101F580097E60223984636E7FC1AA742BF41634634
:101F68007F42C91ACB1B994601235D4698465EE518
:101F78004B07FF083B43CC0892E6DC1B6046A342B4
:101F8800B641401A7642801B8146000260D5FC1A91
:101F9800A742BF4163467F42C91ACB1B99465D469B
:101FA80076E5FF084B073B43CC0867E60A00DB08E9
:101FB8003A4300D16FE66246520713436246D4089B
:101FC80080221203144207D0C808104204D15D468B
:101FD8000400FB0849070B435A0FDB00DB085207D4
:101FE80013435DE64B07FF083B43CC0849E6DC1981
:101FF8009C429B41614489465B4299444B461B0283
:1020080000D431E64A46174B1A40012391469846B8
:102018002AE616006446203EF440A046202A05D051
:1020280040266446B21A944023439A465446631E97
:102038009C4143461C43DBE502000024002348E59D
:10204800DC19BC42BF41614489467F42B94438E744
:102058004B46234300D19FE606E6C046FE07000034
:10206800FF070000FFFF7FFFFF084B073B43CC083B
:1020780016E66246DB08520713436246D4088022FC
:102088001203144207D0C808104204D15D46040068
:10209800FB0849070B435A0FDB005207DB081343C1
:1020A800FEE50023014A1C0013E5C046FF070000B7
:1020B80070B505000C481C0316005B000A034900B4
:1020C800120B490D240B5B0D814208D0064A0020F3
:1020D800934203D120003043431E984170BD012034
:1020E8002A43FBD1F2E7C046FF0700000A0030B5DB
:1020F800134C530009030500090B00205B0DD20F98
:10210800A34204DD0F48834202DD0F4BD01830BDD7
:102118008020400301430D48C01A1F2808DD0C48E1
:10212800C31AD9400B005842002AF0D11800EEE734
:10213800084CC540A446634499400B002B43F2E782
:10214800FE0300001D040000FFFFFF7F33040000B2
:1021580013040000EDFBFFFF70B5002816D0C3176D
:10216800C5185D40C40F280000F04CF8114A121A37
:102178000A2816DC03002E0015339E400B23181A7C
:10218800C54052052D032D0B530D03E000240023F9
:10219800002500261B052B43E407234330001900C4
:1021A80070BD0B38854052052D0300262D0B530DAD
:1021B800F0E7C0461E04000010B5041E10D000F061
:1021C80021F80F4B1B1A0A2811DC0B222100121AC6
:1021D800D14015300A035B058440120B5B0D01E00A
:1021E800002300221B0513432000190010BD220004
:1021F8000B3882405B0512030024120B5B0DF1E7DC
:102208001E0400001C2101231B04984201D3000C6A
:1022180010391B0A984201D3000A08391B09984251
:1022280001D30009043902A2105C40187047C04667
:102238000403020201010101000000000000000087
:1022480010B5002903D1FFF7DDFF203002E00800B8
:10225800FFF7D8FF10BDC04600B585B00C2200219D
:1022680001A802F0EFF81A481A4B03608023DB0537
:10227800436000238360C3600361042242610376E4
:1022880043768376033AC2611F3283544362836282
:102298000C32835403634363836310328354C364EF
:1022A80000F0FAFA00280CD10B4B0193002302939B
:1022B800039301A9064800F0C3FC002804D105B027
:1022C80000BD00F091F8EFE700F08EF8F7E7C046A0
:1022D800D4090020002401400200000410B588B091
:1022E80004001422002103A802F0ACF82268144B61
:1022F8009A4201D008B010BD124B196C80204003DF
:10230800014319641A6C02400192019A596B012227
:10231800114359635B6B1A400292029B0223039399
:1023280001330493A02003A9C00500F0E9FE0022B0
:1023380000210C2000F08CFE0C2000F0B9FED9E73B
:10234800002401400010024082B0094B596B012261
:1023580011435963596B0A400092009A596B042241
:10236800114359635B6B1A400192019B02B070479D
:102378000010024000B583B0019001235B420122A6
:1023880001A9034801F0B6FE019803B000BDC0469C
:102398008C0A002070B50E4B984200D070BD00F03A
:1023A8009DFB81B20B4D29808B005B185A019B184D
:1023B800DB0A094C2380094802F098F8218808486C
:1023C80002F094F82A882188064802F08FF8E5E799
:1023D800D4090020380A00203A0A002048A800083A
:1023E80054A8000860A8000872B6FEE700B593B0CC
:1023F8003422002105A802F025F81022002101A8A6
:1024080002F020F88020800000F036FF02230593B8
:10241800FE3308930023099340220A920C9305A8DF
:1024280000F054FF00280DD10723019300230293E5
:1024380003930493002101A801F0F6F9002803D1C1
:1024480013B000BDFFF7D0FFFFF7CEFF10B500F0C7
:10245800DFF9FFF7CBFFFFF777FF00F007F900F090
:1024680099F8FFF7F9FE054800F0A0FD034800F0D1
:102478009DFDFA20400000F0F1F9F7E7D4090020AB
:1024880000B583B00B4B196C012211431964196C08
:102498000A400092009ADA6B802149050A43DA6300
:1024A800DB6B0B400193019BC020C00000F0E8F9F2
:1024B80003B000BD00100240FEE7FEE7704770471A
:1024C80010B500F0B9F910BD10B5024800F00CFBCA
:1024D80010BDC046D40900200120704710B501F096
:1024E80089FF162303600120404210BD10B5012169
:1024F8004942FFF7F3FFFEE770B50C001600002510
:1025080004E000E000BF207001350134B542F8DB7B
:10251800300070BD70B51600002405E04D1C087829
:10252800FFF728FF01342900B442F7DB300070BD03
:1025380001204042704780239B014B600020704778
:10254800012070470020704710B503000C4A0D4960
:10255800521A0D490968002907D00B490868C318A1
:10256800934206D8084A136010BD07490748086017
:10257800F3E701F03FFF0C23036001204042F3E73B
:1025880000900020000400003C0A0020700B00208E
:102598007047000000B58DB02422002103A801F087
:1025A80051FF0C220021684601F04CFF1448154BDE
:1025B8000360002343608360134AC2600361803371
:1025C80083617D3B039301220592033307930992AC
:1025D8000B9303A901F01AFB00280AD100230093EA
:1025E80002936946064801F06FFB002804D10DB03C
:1025F80000BDFFF7F9FEF1E7FFF7F6FEF7E7C04683
:10260800400A002000040040FFFF000010B588B019
:1026180004001422002103A801F014FF2268114BC2
:102628009A4201D008B010BD0F4BDA6B02210A4361
:10263800DA63DA6B0A400192019A586B012210435F
:1026480058635B6B13400293029BC023039304916E
:10265800BD3B06930792A02003A9C00500F050FDDA
:10266800E0E7C046000400400010024010B51948D9
:10267800194B0360E1235B02436000238360C3605E
:1026880003610C2242618361C36103624362836216
:1026980001F0E2FD002811D100210E4801F05CFE96
:1026A80000280ED100210B4801F07CFE00280BD138
:1026B800084801F031FE002809D110BDFFF794FE4B
:1026C800EAE7FFF791FEEDE7FFF78EFEF0E7FFF789
:1026D8008BFEF2E78C0A00200038014010B58EB05E
:1026E80004001422002109A801F0ACFE1C220021DC
:1026F80002A801F0A7FE2268174B9A4201D00EB03B
:1027080010BD0123029302A801F06EF900281FD121
:10271800124B196C8020C001014319641A6C0240E5
:102728000092009A596B0422114359635B6B1A405B
:102738000192019B302309932E3B0A9300230B93AC
:102748000C9301330D9309A9054800F0D9FCD6E78D
:10275800FFF74AFEDCE7C04600380140001002409F
:10276800000800500D488546FFF712FF0C480D4938
:102778000D4A002302E0D458C4500433C4188C42D4
:10278800F9D30A4A0A4C002301E013600432A2423A
:10279800FBD301F035FEFFF759FEFEE7009000205D
:1027A80000000020B8090020E0AF0008B8090020A8
:1027B8006C0B0020FEE7000010B50400114B1978DF
:1027C800002901D1012010BDFA208000FDF794FCFA
:1027D80001000D4B1868FDF78FFC00F075FC002810
:1027E8000DD1032C01D90120EDE701300022210091
:1027F800404200F02DFC054B1C600020E3E701205F
:10280800E1E7C04604000020000000200800002086
:1028180010B5084A116880235B000B43136003203E
:10282800FFF7CAFF041E02D00124200010BDFFF7E5
:1028380027FEFAE700200240034B1B78034A116881
:102848005B1813607047C04604000020200B00206E
:10285800014B18687047C046200B002070B5040073
:10286800FFF7F6FF0500631C02D0044B1B78E41841
:10287800FFF7EEFF401BA042FAD370BD0400002012
:10288800034A136803490B40034313607047C0466B
:1028980000000140FFF9FFFF30B583B004000023BA
:1028A8000193002800D106E1836D002B13D0236823
:1028B8009A68D2001CD49A68804911408022520537
:1028C8000A439A607E4B18687E49FDF715FC013073
:1028D8004000019009E0FFF701FD0023E365542261
:1028E800A354E4E7019B013B0193019B002BF9D121
:1028F80023689A68D20000D59DE0A26D10210A4392
:10290800A265E26D0F390A43E26501209A68042145
:102918000D001540114200D00125A26DD20600D548
:10292800C2E0002D00D0BFE0A26D67490A40063121
:10293800FF310A43A2659A68D20752D4227E9203D5
:10294800A1680A43617EC9030A43A57E69030A4355
:10295800216B002901D0802149010A43E1680A431B
:102968002169002969DB802189030A432C21615CE4
:1029780049000A432021615C012961D0616A00296C
:1029880005D0E0256D002940A56A29430A43D96886
:102998004E4D29400A43DA6063689B0F9B07E26C3F
:1029A8001A433C21615C012959D021680B69484DC3
:1029B8002B4013430B616368C0221206934210D068
:1029C8008022D20593420CD080221206934208D06E
:1029D80040490A68404D2A40F025AD032B40134377
:1029E8000B602268536907218B43616B0B4353616A
:1029F80021684B6970229343A26B120113434B6108
:102A08002369002B35D12268916A103B0B439362EE
:102A180023685A6907231340626B9A423BD0A36D1F
:102A280012229343023A1343A365E36D0F3A13430B
:102A3800E36501203DE0002068E74900490894E784
:102A4800002D03D1802149020A4397E7A16D202573
:102A58002943A165E16D1F3D2943E1658EE7216C9E
:102A68000B43616C0B43A16C0B43134301221A43C4
:102A78009BE7802292039342CAD121688B6AE3695B
:102A8800013B9B001C221A4010235B429340226E9C
:102A980013438B62BCE70023E365A36D03229343D2
:102AA800023A1343A36504E0A36D10221343A36500
:102AB800012003B030BD0120FBE7C046E8FFFF6FEF
:102AC80000000020400D0300FDFEFFFF0102FEFF95
:102AD80002FCFF1F08270140FFFFC3FF0368186CB3
:102AE800704770477047000070B5040003681E689F
:102AF8005D68B3070FD5AB070DD5836DDB0604D42E
:102B0800826D80231B0113438365200000F09EFA29
:102B1800236802221A60730701D56B0703D43307B1
:102B280029D52B0727D5A36DDB0604D4A26D8023F6
:102B38009B001343A3652368D968C0221201114280
:102B480013D1A27E002A10D11A6812070DD59A68EF
:102B580052073BD45A680C218A435A60A36D374AFE
:102B680013400432FF321343A3652000FFF712FC21
:102B780023680C221A60330601D52B062FD4F305DF
:102B880001D5EB0537D4B30501D5AB0540D4F30621
:102B980017D5EB0615D5236B002B03D02368DB680C
:102BA8009B070BD0A26D8023DB001343A365E36D65
:102BB80002221343E3652000FFF794FF23681022E5
:102BC8001A60B30401D5AB042FD470BDA36D2022C5
:102BD8001343A365E36D1F3A1343E365C5E7A26D8D
:102BE80080235B021343A3652000FFF77AFF236865
:102BF80080221A60C3E7A26D80239B021343A3655A
:102C0800200000F021FA2368802252001A60BAE7F7
:102C1800A26D8023DB021343A365200000F015FAA0
:102C28002368802292001A60B1E7200000F00FFAB2
:102C38002368802292011A60C7E7C046FEFEFFFFA4
:102C4800F0B583B004000023019305695433C35CD5
:102C5800012B00D130E154230122C254006883685B
:102C6800033216001E401A4209D0A36D1C321343CA
:102C7800A365012054230022E25403B0F0BD4B6841
:102C8800022B00D1D6E080221206954226D08B4A2C
:102C9800954223D01F221340103A9A40256E95433F
:102CA8002A000D686F032FD1AD0E1F262E409E40BF
:102CB800164326664D68AB080133E269934213D880
:102CC800826A1F231D40103B1E00AE40B2430E68AF
:102CD800B60E3340AB401343836205E0826A0B684B
:102CE8005B035B0B13438362206842690B681B021A
:102CF8009A438D682B40724D2B40134343610B68F8
:102D0800002B4FDB0020B5E7EF07D0D4AE0727D460
:102D18006E0727D42E0727D4EE0627D4AE0627D46D
:102D28006E0627D42E0627D4EE0527D4AE0527D461
:102D38006E0527D42E0527D4EE0427D4AE0427D455
:102D48006E0427D42E0427D4EE0327D4AE0327D449
:102D58008027FF022E003E403D42A8D01226A6E75B
:102D68000126A4E70226A2E70326A0E704269EE799
:102D780005269CE706269AE7072698E7082696E799
:102D8800092694E70A2692E70B2690E70C268EE799
:102D98000D268CE70E268AE70F2688E7102686E799
:102DA800112684E7474A1168E02252040A4046483F
:102DB800834207D04548834222D0454883422CD0DD
:102DC800002057E70802F5D480231B041A433D4925
:102DD8000B68404803401A430A603F4B18683F4954
:102DE800FDF78AF9013043001B189B00019302E0AC
:102DF800019B013B0193019B002BF9D1002039E78E
:102E0800C801DAD480235B041A432E490B68314881
:102E180003401A430A6000202CE74B024AD480235F
:102E2800DB031A4327490B682A4803401A430A6000
:102E380000201FE780231B069D4202D01F4B9D42A6
:102E480005D1826A0B685B035B0B9A4382620B684D
:102E5800002B01DB00200DE71A4A12681A498B4241
:102E680007D01A498B420FD019498B4217D000203E
:102E780000E7A0235B041A4012490B681548034079
:102E88001A430A600020F5E6C0231B041A400D49C6
:102E98000B68104803401A430A600020EAE6C02382
:102EA8005B041A4007490B680A4803401A430A6042
:102EB8000020DFE60020DDE60220DEE604000080D8
:102EC80000FFFF0708270140001000B0004000B8CD
:102ED800002000B4FFFF3FFE00000020400D03006B
:102EE80030B583B004000023019303689A68D207C1
:102EF8004FD49968284A114211D19A6827490A4043
:102F080001210A439A60264B1B681B0217D5254BE3
:102F180018682549FDF7F0F8013001900CE0836D41
:102F2800102213438365C36D0F3A1343C365012011
:102F380030E0019B013B0193019B002BF9D1637E9B
:102F4800012B01D1002025E0FFF782FC0500236852
:102F58001A68D2071BD49A68D20705D49A680F4911
:102F68000A4001210A439A60FFF772FC401B0228BD
:102F7800EDD923681B68DB07E9D4A36D102213433E
:102F8800A365E36D0F3A1343E365012002E00020D7
:102F980000E0002003B030BD17000080E8FFFF7F8D
:102FA8000827014000000020400D030010B5040070
:102FB80003689B685B073ED45423C35C012B3CD059
:102FC80054230122C254FFF78BFF00282FD1A36D91
:102FD8001B4A1A4080235B001343A3650023E36563
:102FE80022681C2111605422A354226853688B4321
:102FF80053606369082B14D02268536804210B437B
:103008005360236B002B04D12268536810210B43B3
:103018005360226893680B490B4004210B4393606B
:103028000AE02268536814390B435360E9E75423D4
:103038000022E25400E0022010BD0220FCE7C04656
:10304800FEF0FFFFE8FFFF7F70477047704770474B
:1030580070B5002811DB8308134EC0339B009D59BF
:1030680003242040C000FF2214008440A5438901A6
:103078000A4082402A439A5170BD0F230340083BFF
:103088009B0806339B00094A944663445C68032204
:103098001040C000FC3215008540AC4389010A404D
:1030A800824022435A60E7E700E100E000ED00E0DB
:1030B800002805DB1F2318401E3B8340014A13608C
:1030C8007047C04600E100E0013880235B04984265
:1030D8000FD2094A50600948036A1B021B0AC02123
:1030E80009060B4303620023936007331360002033
:1030F80070470120FCE7C04610E000E000ED00E06A
:10310800F0B500235AE084685F000326BE40B4434C
:103118002600CC68BC4034438460446894434A68C1
:103128001609012232409A402243426056E0DC08E8
:103138000834A400265805321A4092000F279740F9
:10314800BE430F6997403A00324322505AE00326A3
:1031580000E00026A64034003C43434E183292005B
:1031680094513468EA432600AE434F68FF0201D504
:103178002C4326003C4C26606468260016404F68A5
:10318800BF0201D52C432600374C66608426A4591B
:10319800260016404F68BF0301D52C432600324C49
:1031A8008427E6518026A45922404E68F60301D5AB
:1031B8002A0022432C4D80242A5101330C68220016
:1031C800DA404FD001229A40250015401442F4D02D
:1031D80003244E683440013C012C94D903224C68E6
:1031E8002240032A09D0C2685E000324B440A243E7
:1031F80014008A68B2402243C26003224C6822400D
:10320800022A94D004685E0003221700B740BC432A
:103218004F683A40B24022430260C02292024C6892
:103228001442CAD09A0814001834A4000E4EA759A4
:1032380003241C40E4000F26A640B743A026F60549
:10324800B04286D0094EB04208D0094EB04207D0ED
:10325800084EB04200D17AE705267BE7012679E7D8
:10326800022677E7F0BDC04600180240000400506F
:1032780000080050000C005010B5104A136810499F
:103288000B400343136080239B00984201D0002029
:1032980010BD0C4B1B685800C01840000A49FCF7C9
:1032A8002BFF0130054B5B695B0503D5002803D074
:1032B8000138F7E70020EBE70320E9E7007000405A
:1032C800FFF9FFFF0000002040420F0070B582B0F8
:1032D800041E00D129E20368DB0739D5C14A916889
:1032E80038230B40D16803220A40102B26D0082B24
:1032F80026D063688022520293427FD0A022D20255
:10330800934200D181E0B74B1A68B7490A401A6066
:103318001A68B6490A401A606368002B00D180E039
:10332800FFF796FA0500AF4B1B689B0310D4FFF715
:103338008FFA401B6428F6D90320F7E1032AD6D177
:10334800A84B1B689B0303D56368002B00D1EFE1F2
:1033580023689B0731D5A34A936838210B40D1686D
:1033680003220A40102B6AD0002B6BD19D4A1268A9
:10337800520503D5E268002A00D1DBE1994842688A
:103388009B490A40616909020A434260002B0DD13A
:10339800036898490B4021690B4303600368DB0A03
:1033A80007221A40944BD340944A1360944B1868F0
:1033B800FFF702FA002800D0BEE123681B0700D4FB
:1033C80081E0884B9A6838231340182B73D0A3697F
:1033D800002B00D1B4E0834A136E01210B4313661E
:1033E800FFF736FA05007F4B1B6E9B076BD4FFF780
:1033F8002FFA401B0228F6D9032097E1794A116871
:1034080080235B020B43136086E7764B19688022A2
:10341800D2020A431A601968802252020A431A60CB
:103428007AE7FFF715FA05006E4B1B689B038FD5EB
:10343800FFF70EFA401B6428F6D9032076E1022A2A
:1034480092D193E7E368002B22D0664A1368694952
:103458000B4021690B431360116880235B000B4309
:103468001360FFF7F5F905005E4B1B685B0506D492
:10347800FFF7EEF9401B0228F6D9032056E1594917
:103488004B685B4A13406269120213434B6094E72E
:10349800544A13685B490B401360FFF7D9F90500DC
:1034A800504B1B685B0588D5FFF7D2F9401B0228F3
:1034B800F6D903203AE14B4B1B6E9B0703D5A36952
:1034C800002B00D13AE123685B0700D4A2E0454B0A
:1034D8009A6838231340202B45D0424BDB6BDB0026
:1034E8004AD4404AD16B802040050143D163D36B55
:1034F80003400193019B0125434B1B68DB053DD528
:10350800A368012B4ED0052B52D0364BDA6D012122
:103518008A43DA65DA6D03318A43DA65A368002BDA
:1035280050D0FFF795F906002E4BDB6D9B076FD443
:10353800FFF78EF9801B354B9842F5D90320F5E04B
:10354800284A136E01218B431366FFF781F90500A2
:10355800244B1B6E9B07B6D5FFF77AF9401B022850
:10356800F6D90320E2E01F4BDB6D9B0752D5A36819
:10357800002B4FD10120D9E00025BDE7224A116870
:1035880080235B000B431360FFF762F906001E4BB4
:103598001B68DB05B4D4FFF75BF9801B0228F6D95A
:1035A8000320C3E00F4AD36D01210B43D365B5E770
:1035B8000C4BDA6D04210A43DA65DA6D03390A43E4
:1035C800DA65ABE7FFF744F90600064BDB6D9B07AE
:1035D8001ED5FFF73DF9801B0C4B9842F5D9032007
:1035E800A4E0C04600100240FFFFFEFFFFFFFBFF04
:1035F800FF80FFFFFFC7FFFF0024F400000000204A
:1036080008000020FFFEFFFF007000408813000044
:10361800012D1ED0E369002B00D191E04F4A91683B
:1036280038220A40102A5ED0022B18D04B4A136861
:103638004B490B401360FFF70BF90400474B1B681D
:103648009B0149D5FFF704F9001B0228F6D903208E
:103658006CE0424AD36B43490B40D363DAE73F4AF5
:1036680013683F490B401360FFF7F2F805003B4B26
:103678001B689B0106D5FFF7EBF8401B0228F6D91B
:10368800032053E0354AD36837491940236A606AF2
:103698000343A06A00020343E06A0343206B034329
:1036A8000B43D360116880235B040B431360D1681C
:1036B80080235B050B43D360FFF7CAF80400274B50
:1036C8001B689B0106D4FFF7C3F8001B0228F6D934
:1036D80003202BE0002029E0204AD36823490B402F
:1036E800D360002022E0012B2CD01C4BDA68032386
:1036F8001340216A8B4227D170231340616A8B42A1
:1037080024D1FE21C9011140A36A1B0299421FD18D
:10371800F8239B031340E16A8B421BD1520F5207D7
:10372800236B9A4218D1002000E0012002B070BD3E
:103738000120FBE70120F9E70120F7E70120F5E781
:103748000020F3E70120F1E70120EFE70120EDE792
:103758000120EBE70120E9E70120E7E7001002403C
:10376800FFFFFFFEFFFFFFEF8C80C11FFCFFFEEF96
:1037780010B52A4B9B6838221A4207D1274B1A6882
:10378800D20A072313402648D84010BD234B9A6815
:1037980038231340082B3BD0204B9A68382313401A
:1037A800102B0DD01D4B9A6838231340202B31D095
:1037B8001A4B9A6838231340182B26D00020E4E7C8
:1037C800164AD1680D3B0B40D268120907211140F7
:1037D8000131032B0FD01248FCF78EFC0F4BDA682F
:1037E800120A7F23134058430C4BD968490F013103
:1037F800FCF782FCC9E70B48FCF77EFC074BDA684C
:10380800120A7F2313405843EEE7FA20C001BCE7B1
:103818000448BAE780200002B7E7C046001002401B
:103828000024F40000127A0070B504000D0000288E
:1038380000D1AAE0574B1A68072313408B4221D3C3
:1038480023689A070ED55B0705D5534A9168E0238C
:10385800DB010B439360504A936850490B40A168C1
:103868000B4393602368DB0754D56368012B20D092
:10387800022B3BD0002B3FD1474A126852051CD47B
:1038880001206AE0434A136807218B432B431360E6
:10389800FEF7DEFF06003F4B1A6807231340AB42D2
:1038A800CED0FEF7D5FF801B3D4A9042F3D90320C6
:1038B80053E0394A1268920369D537498A68072064
:1038C800824313438B60FEF7C3FF0600324B9B68AD
:1038D80038221A406368DB009A421BD0FEF7B8FF13
:1038E800801B2F4B9842F1D9032036E02A4A1268F0
:1038F8009201E2D4012030E0032B05D0264AD26D94
:103908009207DAD4012028E0234A126E9207D4D411
:10391800012022E01F4B1A6807231340AB421DD831
:1039280023685B0706D51C4A93681E490B40E1686B
:103938000B439360FFF71CFF174B9A68120A0F237B
:1039480013409B00184A9A581F231340D840174B1E
:103958001860174B1868FEF72FFF70BD0D4A1368E3
:1039680007218B432B431360FEF772FF0600094BB8
:103978001A6807231340AB42D2D0FEF769FF801BB9
:10398800074B9842F3D90320E7E70120E5E7012038
:10399800E3E7C0460020024000100240FFF0FFFFAE
:1039A80088130000FF8FFFFF70A8000800000020A8
:1039B80008000020014B18687047C046000000202E
:1039C80010B5FFF7F7FF064B9A68120B0723134051
:1039D8009B00044A9A581F231340D84010BDC04684
:1039E80000100240B0A80008F0B583B004000368D6
:1039F8009B0362D5584BDB6BDB001ED4564AD16B58
:103A0800802040050143D163D36B03400193019BA0
:103A18000126524A116880235B000B431360FEF7AE
:103A280017FF05004D4B1B68DB0508D4FEF710FF98
:103A3800401B0228F6D9032502E00026E9E7002505
:103A4800002D23D1444BD96DC02292000B001340A6
:103A5800114210D0A2699A420DD03F4AD36D404915
:103A68000B40D06D802149020143D165D16D3D489D
:103A78000140D165D365DB0710D4002D06D1364A45
:103A8800D36D37490B40A1690B43D365012E15D17E
:103A9800314AD36B34490B40D3630FE0FEF7D8FEAD
:103AA80007002D4BDB6D9B07E7D4FEF7D1FEC01B4B
:103AB8002E4B9842F5D90325DFE700252368DB075D
:103AC80006D5254A536D03218B4361680B43536523
:103AD80023689B0706D5204A536D0C218B43A168A8
:103AE8000B43536523689B0606D51B4A536D204933
:103AF8000B40E1680B43536523685B040BD5164AFA
:103B0800536D9B009B0861690B4353658023DB055C
:103B180062699A4211D023681B050BD50E4A536D72
:103B280014490B4021690B43536522698023DB014B
:103B38009A4209D0280003B0F0BD074AD168802313
:103B48005B020B43D360E6E7034AD16880235B023C
:103B58000B43D360EEE7C0460010024000700040FF
:103B6800FFFCFFFFFFFFFEFFFFFFFFEF88130000D2
:103B7800FFCFFFFFFF3FFFFF03681D4A904202D0BF
:103B88001C4A904203D1702293434A681343184A4F
:103B980090420ED0174A90420BD0174A904208D054
:103BA800164A904205D0164A904202D0154A9042D1
:103BB80003D1154A1340CA681343802293434A69C4
:103BC800134303608B68C3620B688362084B984297
:103BD80008D00A4B984205D0094B984202D0094BAD
:103BE800984201D10B690363012343617047C046C2
:103BF800002C01400004004000200040004001402B
:103C08000044014000480140FFFCFFFFF0B5C646F4
:103C180000B504000D0000284DD03D23C35C002BE7
:103C280043D03D260223A3552268936823490B40BD
:103C38009360210001C9FFF79FFF216888688A699E
:103C48000F6A2B68184380461D4B1340AA6912025D
:103C5800A86802431A431B4B1A40EB691B02E86829
:103C680003431A432B691B01286A000303431343C8
:103C7800AA2297436A686D692D012A433A43404650
:103C8800886021688B6123681A6201234822A35443
:103C98000A3AA3540132A3540532A3540132A3545F
:103CA800A355002080BCB846F0BD3C330022C25466
:103CB800FEF7ACFCB5E70120F4E7C046F8BFFEFF0D
:103CC800FCFCFFFF0303FFFF30B53C23C35C012B63
:103CD8002CD03C230122C25401330132C254026861
:103CE80053689468124DAA421BD07025AB430D68E7
:103CF8002B43536003680E4A934205D00D4A934202
:103D080002D00D4A934204D1802294438A68144316
:103D18009C603D230122C254013B0022C254002072
:103D280030BD064D2B404D682B43DEE70220F7E7F8
:103D3800002C01400004004000400140FFFF0FFF3D
:103D480010B5040083680269134342691343C269CA
:103D5800134301680A686B48024013430B602268EA
:103D6800536869490B40E1680B435360226AA369B1
:103D78001A4321688B686548034013438B602268A7
:103D8800D36A0F218B43616A0B43D3622368604A6D
:103D980093420AD05F4A93423ED05F4A93425CD036
:103DA8005E4A934249D010230BE05D4B5A6D0323C2
:103DB8001340022B43D02BD8002B42D0012B42D1E9
:103DC8000333E06980221202904248D0042B00D1CC
:103DD80091E07AD8002B00D186E0022B73D15148AC
:103DE800636A5B00504A995AFCF786F963685B0876
:103DF800C0186168FCF780F90200103A4B4B9A42F0
:103E080000D97DE023680004000CD860002062E03F
:103E1800032B1AD10533D4E7414B5A6D0C231340B9
:103E2800082B14D005D8002B13D0042BC9D010238D
:103E3800C7E70C2B0FD1043BC3E70023C1E70223DC
:103E4800BFE70023BDE71023BBE71023B9E7022330
:103E5800B7E70023B5E71023B3E70023B1E7042B46
:103E68002ED023D8002B25D0022B1DD12D48636AD4
:103E78005B002D4A995AFCF73FF9400063685B08DC
:103E8800C0186168FCF738F90200103A274B9A42CB
:103E980034D882B20F239A434008083B1840104395
:103EA8002368D860002016E0012014E0082BDED03B
:103EB800012010E0FFF784FD0028D8D100200AE097
:103EC800FFF756FCF8E7012005E0082B02D1802017
:103ED800000285E7012001236A22A352023AA35275
:103EE80000236367A36710BDFFF76AFD002800D0B1
:103EF80076E70020EFE7FFF73BFCF7E70120EAE76A
:103F08000120E8E7F369FFCFFFCFFFFFFFF4FF11C0
:103F1800003801400044004000480040004C004088
:103F2800001002400024F400D0A80008EFFF0000B1
:103F3800836ADB0706D5026853682C490B40C16ABF
:103F48000B435360836A9B0706D502685368284968
:103F58000B40016B0B435360836A5B0706D502680D
:103F6800536824490B40416B0B435360836A1B071A
:103F780006D50268536820490B40816B0B43536098
:103F8800836ADB0606D5026893681C490B40C16B3F
:103F98000B439360836A9B0606D5026893681849A9
:103FA8000B40016C0B439360836A5B060BD5026878
:103FB800536814490B40416C0B43536080235B03E7
:103FC800426C9A420AD0836A1B0606D50268536877
:103FD8000D490B40C16C0B4353607047026853682E
:103FE8000A490B40816C0B435360ECE7FFFFFDFF70
:103FF800FFFFFEFFFFFFFBFFFF7FFFFFFFEFFFFF5E
:10400800FFDFFFFFFFFFEFFFFFFFF7FFFFFF9FFF50
:10401800F8B5CE46474680B506000D00170099460C
:10402800089B98463368DC692C40641B63425C41FA
:10403800BC4257D143460133F4D0FEF709FC4B4646
:10404800C01A40452ED84346002B2BD033681A6837
:104058005207E7D5DA691205E4D5802212011A62FF
:10406800EFF31080012282F3108831680B68204C2E
:1040780023400B6080F31088EFF3108082F31088E0
:1040880031688B6893438B6080F3108820238732D4
:10409800B3500432B3500432B35064330022F254A4
:1040A800032020E0EFF31080012282F310883168AA
:1040B8000B680F4C23400B6080F31088EFF31080DF
:1040C80082F3108831688B6893438B6080F3108883
:1040D80020238732B3500432B35064330022F254A1
:1040E800032000E00020C0BCB946B046F8BDC04679
:1040F8005FFEFFFFF0B5C64600B582B004000D00B4
:1041080090461E008823C358202B5CD100295FD01D
:10411800002A5FD080235B0182689A4204D1036938
:10412800002B01D1CB0757D490230022E250083B43
:104138002132E250FEF78CFB070054234246E2523C
:104148000233E25280235B01A2689A4202D0002324
:10415800984613E02369002B25D0002398460DE0EC
:1041680043461B882268DB05DB0D936202239C46CD
:10417800E0445623E25A013A92B2E2525623E35AF5
:104188009BB2002B12D000963B0000228021200019
:10419800FFF73EFF002821D1002DE1D02A782368BF
:1041A8009A620135E5E7A8460025E7E700963B0057
:1041B800002240212000FFF72BFF002810D1882380
:1041C8002022E25000E0022002B080BCB846F0BDD8
:1041D8000120F9E70120F7E70120F5E70320F3E7DD
:1041E8000320F1E730B583B0040090230022C250C9
:1041F800FEF72EFB050022681268130710D4236807
:104208001B685B0719D420238822A3500432A350CB
:104218000023E3662367083AA354002003B030BDA7
:1042280080210C4B00930300002289032000FFF734
:10423800EFFE0028E3D00320F0E78021054B009330
:104248002B000022C9032000FFF7E2FE0028DAD085
:104258000320E3E7FFFFFF0110B5041E30D08823D9
:10426800C358002B22D088232422E25022681368E6
:1042780001218B4313602000FFF762FD012814D051
:10428800A36A002B18D1226853680E490B4053606B
:10429800226893682A218B4393602268136829391E
:1042A8000B4313602000FFF79DFF10BD84330022ED
:1042B800C254FEF713FAD6E72000FFF739FEE2E70B
:1042C8000120F2E7FFB7FFFFF8B50400436E002BAB
:1042D80005D101336A228352023A8352F8BD02683B
:1042E80095686D0E07231D409268520F1340084FC2
:1042F800F85CC000074EF15CFBF788FF6A23E052C8
:10430800785DC000715DFBF781FF6823E052E5E747
:10431800F0A80008E8A8000870B58423C35C012B46
:1043280015D0842401260655882524234351026884
:1043380013681168B1431160064A134000224266AF
:1043480001680B60202343510255002070BD0220F4
:10435800FCE7C046FFFFFFDFF8B504000A0084232E
:10436800C35C012B1BD0842501206055882624239B
:10437800A35123681F6819688143196020688368FE
:10438800DB00D908114381602000FFF79DFF2368F7
:104398001F602023A351002363550020F8BD02208D
:1043A800FCE70000F8B504000B008422825C012AB7
:1043B8001BD084250120605588262422A25122681A
:1043C80017681168814311602268916808480140A4
:1043D800194391602000FFF777FF23681F602023AF
:1043E800A351002363550020F8BD0220FCE7C04616
:1043F800FFFFFFF1014B18687047C0460C00002012
:1044080070B50C4D0C4E761BB61005D0002408CDA7
:1044180001349847A642FAD106F0C4F9074D084E70
:10442800761BB61005D0002408CD01349847A64263
:10443800FAD170BDD4AF0008D4AF0008D4AF0008DB
:10444800DCAF0008F0B50500830749D0541E002AE8
:1044580045D003000326CAB202E00135013C3ED331
:1044680001332A703342F8D1032C30D9FF220A4095
:10447800150215432A0415430F2C34D92700103F81
:104488003F093E01B4461E001A0010366644156006
:1044980055609560D5601032B242F8D101373F01BE
:1044A800DB190F270C22274022403C00002A0ED09F
:1044B8003E1FB608B400A4461A001C1D644420C25E
:1044C800A242FCD103240136B6009B193C40002CC3
:1044D80005D0C9B21C19197001339C42FBD1F0BD3B
:1044E80003001400C0E72700E2E7C0460FB400B598
:1044F800064983B004AB086804CB8168019300F0D7
:1045080007F803B008BC04B01847C0460C000020E8
:10451800F0B5DE464E4645465746E0B5D7B0834629
:10452800894690461C000F9303F044FA036818006C
:104538001C9304F0B7FA5B461B90002B03D09B6BCF
:10454800002B00D15AE24B465B6EDB0700D5B3E087
:104558004B460C21595E4B469B899A0500D4A7E02F
:1045680080229201134209D10A434B4649469A8157
:10457800496EDE4B0B4049464B6693B21A0746D547
:104588004A461269002A42D01A221A400A2A4CD0F6
:104598002DAB2A93002300242C932B9315930023EF
:1045A80046461693179400231D931E931A931F9340
:1045B800209309933378C8462DAF002B00D123E10F
:1045C800340003E063780134002B5BD0252BF9D14C
:1045D800A51BB4425AD12378002B00D114E1631CE7
:1045E800069300231CAAD376012252420892002285
:1045F80063785D4614000A92069A013206921A0000
:10460800203A5A2A69D8BA4992008A5897464946A0
:10461800584601F0E5FD4B46002801D001F038FC72
:104628001A229B891A400A2AB2D14A460E21525EA2
:10463800002AADDB4A46526ED20703D49B0501D44B
:1046480001F01BFA230042464946584601F082FD14
:10465800099000F0A7FC280003F0ACF943681800A3
:10466800209304F01FFA81461F90280003F0A2F956
:1046780083681A934B46002B01D000F054FE069B2A
:104688001B78B9E7A51BB44200D1BDE02C9B3E6066
:104698005B192C932B9B7D60069301332B93072B7F
:1046A80010DC0837099B9C46AC446346099392E7A3
:1046B8004B46986D03F086F94B460C21595E4B46E4
:1046C8009B894DE7414658462AAA04F093FA0028E8
:1046D80001D001F0A0FC2DAFE4E7A246AB4612934F
:1046E800002B00D190E03DAE337000231CAAD37696
:1046F80000220E92013201330B920022079300230D
:104708000892189213921492022251461140109165
:1047180051460A4202D0079A023207928422514631
:104728001140119151460A4205D10A9A0799541A23
:10473800002C00DDCDE02C9C002B11D01CAA1B23E3
:10474800944663443B6001237B602B9B013419939F
:1047580001332C942B93072B01DD00F059FC08370B
:10476800109B002B0ED023AB3B6002237B602B9B5E
:104778000234109301332C942B93072B01DD00F0A6
:104788003CFC0837119B802B00D173E3089B0B9AE4
:104798009D1A002D00DDADE35346DB0500D50EE381
:1047A8000B9B3E609C467B602B9B644408930133C3
:1047B8002C942B93072B00DD15E1083753465B0734
:1047C80006D50A9B079A9E1A002E01DD00F02BFCE5
:1047D8000A9B079A934200DA1300099A94469C446C
:1047E80063460993002C00D0C1E300232B930E9B52
:1047F800002B03D058460E9902F0D6FF069E2DAF27
:104808003378002B00D0DBE62C9BC1460693002BA7
:1048180001D001F046F800232B93B7E3303B00208A
:104828001A000699830018180B001B78400010180E
:104838001A00303A0131092AF4D906910A90DEE6C5
:1048480012930723A2460F9CAB4607349C432200D1
:1048580018CA16931794169B179C0F921D000122D5
:104868006400640828002100224B5242FDF720FC16
:10487800002801D000F098FD0122280021001D4BDE
:104888005242FBF7CFFD002801D000F08DFD1698AD
:10489800179900220023FBF7BBFD002801D000F088
:1048A800FBFF1CABDB7E129A472A01DC00F0E1FF1C
:1048B800114E8022514691437D3A079200228A4642
:1048C8000E9203320B9200220892189213921492BD
:1048D80068E12C9A2B9B094D102C31DD102189465B
:1048E80039004746B0465E460EE0C046FFDFFFFF90
:1048F80040A90008FFFFEF7F00A90008ACAA000844
:10490800103C0831102C17DD4846103201330D6079
:1049180048602C922B93072BF2DD390030002AAA2D
:1049280004F068F9002801D000F0E5FE103C2C9A4C
:104938002B9B2DA9102CE7DCB3464646B8460F0042
:104948007C600133A4183D602C942B93072B01DD68
:1049580000F0C3FE1CABDB7E0837EDE6159B3E601E
:10496800012B01DC00F01DFC01237B602B9B013433
:104978005D1C2C9408932B95072D01DD00F093FE08
:1049880008371C9B01353B601B9B2B959C46644458
:104998007B602C94072D01DD00F092FE0837002281
:1049A800169817990023FBF72DFD002801D000F079
:1049B80016FC159B0136013BE41801353E607B600F
:1049C8002C942B95072D01DD00F0FCFB083726AB56
:1049D8003B601E9B01359C4664447B602C942B9560
:1049E800072D00DCE9E6414658462AAA04F002F9F8
:1049F800002800D0C3E22C9C2DAFDFE6584602F019
:104A0800D1FDA0E520231C43069B1B78F4E51293F7
:104A18000023A2460F9C1CAA40CCAB46D376002E9E
:104A280001D100F00BFE089A531C01D100F09CFE46
:104A38000021300003F0FEFA0E90002801D101F0A9
:104A4800BDF90E9B991BCA43D2170B911140002246
:104A58001CABDB7E07910F940E920892189213926A
:104A680014929FE0A2460F9C129308CC3DAE33707F
:104A780000231CAAAB46D3760F9439E60F9A08CACE
:104A88000A93002B01DB00F015FC0A9B0F925B4296
:104A98000A9304231C43069B1B78ADE52B231CAA11
:104AA800D376069B1B78A7E580231C43069B1B78BF
:104AB800A2E5069B581C1B782A2B01D101F01DFB8F
:104AC8001A000021303A84460891092A01D901F0D8
:104AD800AFF900206146830018180B001B784000CE
:104AE80080181A00303A0131092AF4D90691089041
:104AF80085E501231C43069B1B787DE51CABDB7E0B
:104B0800002B00D0BBE520231CAAD376069B1B787C
:104B180072E5069B1B78682B01D100F080FD4022CE
:104B2800144369E5A2461293102453462343AB4627
:104B38001C00A30600D48FE307220F9B073393437F
:104B480019000CC90C920D9301230F9100221CA986
:104B5800CA760898421C00D1C6E080222100914301
:104B68008A460C990D9A0D00154300D0BBE0002829
:104B780001D000F0EAFD002B62D101331A00224077
:104B88000B9256AE234200D0C4E3089A0B991CAB93
:104B9800DB7E07928A4200DA079100220E92189271
:104BA80013921492002B00D1AEE5079A01320792B6
:104BB800AAE52200129310231A43AB4692465346A5
:104BC8009B0600D43DE307230F9C07349C43220037
:104BD80018CA0C930D940F925346CB4C23401C00DB
:104BE8000023B3E708231C43069B1B7804E5220037
:104BF800129310231A43AB46924653469B0600D4A1
:104C080035E307230F9C07349C4301339C46A44497
:104C1800634622680F9363680C920D93002B00DAA9
:104C280031E3089B544601330FD080239C430C9AF0
:104C38000D9B1100194308D1089B002B0BD1A246EC
:104C4800002356AE08930B939FE70C9A0D9B002BFD
:104C580078D1092A76D863220C9B3DA930338B542E
:104C680001230B931CABE7269C46A24666448CE7BF
:104C78000F9BA24604CB02240C9200220D925246AE
:104C880030212243140023AA117048315170782230
:104C98000F939E4BAB461D931292022356E72300B7
:104CA800AB469B0600D550E32300DB0601D500F098
:104CB80053FD23005B0601D500F00BFE23009B0586
:104CC80001D400F049FD0F9C099A08CC069E1A7081
:104CD8000F9495E5069B1B786C2B01D100F097FC8F
:104CE8001022144388E45446012BAED056AE022B52
:104CF80000D166E10723A146BA469C460C9A0D9B53
:104D08005F07D5086146D8082F43030038001140D3
:104D180034003031013E3A0031701843F0D125009B
:104D28004C4657460C920D93E20743D5302941D0A3
:104D38003023013E023D337056AB5B1BCA462E0042
:104D48000B9322E780250023ED002540BA46A946AB
:104D580007941F000C9C0D9D56AE0BE00A22002301
:104D680020002900FBF77CFB002D01D100F080FF1B
:104D780004000D000A22002320002900FBF770FB25
:104D88004B46013E303232700137002BE6D01A9B79
:104D98001B789F42E2D1FF2FE0D0002D01D000F018
:104DA80060FC092C01D900F05CFC159757460C945F
:104DB8000D95079C56AB9B1BA2460B93E5E6129BF1
:104DC800652B00DCCAE51698179900220023FBF72B
:104DD80019FB002800D15FE14D4B01343B600123F2
:104DE8007B602B9B2C94089301332B93072B01DDBD
:104DF80000F090FC0837249B159A934200DB4FE2A1
:104E08001C9B3B601B9B9C467B602B9B64440893CC
:104E180001332C942B93072B01DD00F003FC08379A
:104E2800159B5D1E002D00DCC8E43A4A2B9B914679
:104E3800102D01DC00F07CFC220010264C4605E019
:104E48000837103D102D01DC00F070FC10320133E2
:104E58003C607E602C922B93072BF1DD414658462F
:104E68002AAA03F0C7FE002800D088E02C9A2B9BC2
:104E78002DAFE6E70A9B079A9D1A002D00DC85E412
:104E8800244A2B9B9146102D23DD22004C46B14627
:104E98005E4603E0103D0837102D16DD1021103254
:104EA80001333C6079602C922B93072BF2DD41464D
:104EB80030002AAA03F09EFE002800D0E9E0103D49
:104EC8002C9A2B9B2DAF102DE8DCB3464E46A146FD
:104ED80014004A46641901333A607D602C942B9380
:104EE800072B00DD4FE3089B0B9A08379D1A002D0E
:104EF80000DC51E4074A2B9B9146102D2BDD220044
:104F08004C46B1465E460BE0FFFBFFFF0CA90008CC
:104F18003CA90008BCAA0008103D0837102D16DD72
:104F28001021103201333C6079602C922B93072BAF
:104F3800F2DD414630002AAA03F05CFE002800D0CA
:104F4800A7E0103D2C9A2B9B2DAF102DE8DCB34623
:104F58004E46A14614004A46641901333A607D6002
:104F68002C942B93072B00DD5FE1083714E44146AE
:104F780058462AAA03F03EFE002800D135E4C1466F
:104F88000E99002902D0584602F00EFC4B465B6E83
:104F9800DB0713D44B469B899A050BD55B0601D5D5
:104FA80000F081FF099857B0F0BCBB46B246A9464D
:104FB800A046F0BD4B46986D02F006FD4B469B8916
:104FC800ECE70F200C9A0D9BA446B9461D9F0100E3
:104FD8001140795C1C071509013E2C4331701909F1
:104FE8000B00210022001943F1D10C920D9356AB0E
:104FF8009B1B4F46E2460B93C7E5414658462AAAF3
:1050080003F0F8FD0028BAD12C9C2DAFFFF7BAFBAE
:10501800414658462AAA03F0EDFD0028AFD12C9C42
:105028002DAFFFF79DFB2B9BDC4D102E1DDD1022B5
:10503800914603E0103E0837102E16DD4A4610341C
:1050480001333D607A602C942B93072BF2DD4146A7
:1050580058462AAA03F0CEFD002800D08FE7103E5C
:105068002C9C2B9B2DAF102EE8DCA419013360C7B4
:105078002C942B93072B01DCFFF7AAFB41465846DB
:105088002AAA03F0B7FD002800D078E72C9CFFF788
:105098009FFBB346C14673E72499002900DC0EE163
:1050A800149A159B15009A4200DD1D00002D0CDD99
:1050B8002B9B6419089301333E607D602C942B93DD
:1050C800072B01DD00F0FAFD0837EB43DB171D4025
:1050D800149B5D1B002D00DD7BE3149B9C4653460F
:1050E800B44465465B0501D500F00FFD249B159A75
:1050F800934203DB5246D20700D4E0E31C9A3A609D
:105108001B9A94467A602B9A6444089201322C9434
:105118002B92072A01DD00F0DEFD083715998C4631
:10512800CB1A6644721B1E00934200DD1600002E47
:105138000CDD2B9AA419089201323D607E602C94F4
:105148002B92072A01DD00F051FE0837F543ED17D1
:1051580035405D1B002D01DCFFF730FB904A2B9B8F
:105168009146102D00DCE3E2220010264C4604E0B4
:105178000837103D102D00DCD8E2103201333C60B6
:105188007E602C922B93072BF2DD414658462AAAC3
:1051980003F030FD002800D0F1E62C9A2B9B2DAFB0
:1051A800E7E701235246134201D0FFF7DDFB7B609E
:1051B8002B9B01345D1C2C9408932B95072D01DC47
:1051C800FFF704FC414658462AAA03F013FD0028BD
:1051D80000D0D4E62C9C2B9D2DAFFFF7F8FB159B38
:1051E8005E1E002E01DCFFF7F2FB6D4B9946102E78
:1051F80005DCBFE20837103E102E00DCBAE24B4651
:105208003B601023103401357B602C942B95072DBF
:10521800F0DD414658462AAA03F0ECFC002800D0ED
:10522800ADE62C9C2B9D2DAFE5E7414658462AAAB2
:1052380003F0E0FC002800D0A1E62C9C2DAFFFF77E
:10524800ABFA5346DB0600D490E00F9C08CC0C93D5
:1052580000230F940D93BFE4E30600D47FE00F9B77
:1052680004CB0C9200220F930D9201236EE4534657
:10527800DB0600D486E00F9C08CC0C93DB170D935B
:105288000F9400D4CDE40C990D9A00244B4294411C
:105298000C930D942D231CAAD37654462C3B58E42A
:1052A8005346DB0701D4FFF789FAA9E5A246AB46C6
:1052B8001293A2E4069B0F921B78FFF79DF9394BD6
:1052C80001343B6001237B602B9B2C9408930133B2
:1052D8002B93072B01DD00F0D1FC0837002900D003
:1052E80054E2524601231340159A134301D1FFF7A4
:1052F80065FA1C9B3B601B9B9C467B602B9B644414
:10530800089301332C942B93072B00DDA7E33A0075
:1053180008324EE2302162333DAAD1541CABE72655
:105328009C46664431E41A9B002B01D1FFF7A7F98C
:105338001A9B1B78002B01D1FFF7A1F98023DB0012
:105348001C43069B1B78FFF757F90F9C099A08CC5A
:10535800069E1A60D2175A600F94FFF751FA630637
:1053680000D466E20F9B04CB92B27AE753465B0601
:1053780000D451E20F9C08CC9BB20C9300230F94ED
:105388000D9329E453465B0600D459E20F9C08CCE0
:105398001BB20C93DB170D930F943FE4ACAA0008E3
:1053A800BCAA00083CA900081698179902000B002F
:1053B800FCF77EFE002801D000F030FE129B612B26
:1053C80001D100F0ABFD412B00D197E2089B0133DE
:1053D80001D100F0C8FD2023129A9A430B92472A64
:1053E80001D100F0ABFD802352465B001A431892AE
:1053F8001699179A002A01DA00F05AFD00230D00C9
:10540800914619930E930B9B462B01D100F07AFC21
:10541800452B01D100F067FD28AB049325AB03931E
:1054280024AB0293089B2A00019302235846009359
:105438004B4600F0FBFF0B9B0600472B01D000F00A
:1054480075FE5346DB0701D500F01BFD5246079257
:10545800189A289B92469B1B15930B9B472B00D1B0
:105468001EE30B9B462B01D100F08EFC249B14936A
:10547800149B5C1E0B9B2494412B01D100F0AEFDC4
:1054880048226B469B1800221B7828201CA9091863
:105498000B702B23002C03DA0124149BE41A2D2310
:1054A80029201CA909180B70092C01DC00F080FDCB
:1054B8001CAA3723944663441D00BA46B14620000F
:1054C8000A21FAF789FF2E003031013D20002970AA
:1054D8000A21FAF79BFE27000400632FEFDC4B46F6
:1054E800B14601001CA81E0037224B4684463031C5
:1054F800023BC9B2624457461970934201D300F087
:105508000EFE2A22624400E019781CA81170844615
:1055180037210133614401328B42F5D139234A46A0
:1055280063449B1A2A226244944626AA63449B1A1F
:105538001E93159B1E991A008C4662440B92012BF0
:1055480001DC00F0AFFD1B9A0B9B944663440B9360
:10555800E44B079A1A401300802252001A439246DD
:105568000B9AD343DB171A4000230792189313931F
:105578001493199B002B00D0C0E200221CABDB7EE9
:105588000892FFF70FFB414658462AAA03F032FB60
:10559800002800D0F3E42C9C2DAFFFF7F7F8A246C3
:1055A800AB461293D04B1D9353469B0671D50723E8
:1055B8000F9C07349C43220018CA0C930D940F9239
:1055C8005346DB070DD50C9A0D9B1100194308D0E3
:1055D800302223AB1A70129A5A70524602231A4389
:1055E80092465346BF4C23401C000223FFF7AEFAF5
:1055F800AB461293FFF79DFAA246AB461293FFF70C
:10560800DEFA1293B94BA246AB461D93CCE74C3B4E
:10561800069A1C43013213780692FEF7EDFF993380
:10562800FF33F5E7414658462AAA03F0E3FA002873
:1056380000D0A4E42C9C2DAFFFF7F2FB089B079346
:10564800062B00D938E1002300220E93079BA84EB1
:105658000B930F9400230892189213921492FFF759
:1056680053F81F9B2099F61A1A00300003F048FAE5
:105678001A9920004B788C465A1E93419C446346E5
:105688000A221A9329000023FAF7EAFE0027FFF7F7
:105698006FFB5346DB0631D50F9C08CC0C930023D7
:1056A8000F940D938CE7414658462AAA03F0A2FAB4
:1056B800002800D063E42C9C2B9D2DAFFFF761F9E7
:1056C800414658462AAA03F095FA002800D056E425
:1056D8002C9C2B9D2DAFFFF762F9414658462AAA0C
:1056E80003F088FA002800D049E41CABDB7E2C9C30
:1056F8002DAFFFF721F8B346B94641E453465B06A0
:1057080000D4AAE00F9C08CC9BB20C9300230F9402
:105718000D9355E7414658462AAA03F06BFA00282C
:1057280000D02CE42C9C2DAFFFF765FBA14614009C
:105738004A46641901333A607D602C942B93072BF9
:1057480001DCFFF73AF8FFF74EF95446012B01D078
:10575800FFF7CCFAFFF77FFA0F9C099A08CC1A607A
:10576800069E0F94FFF74CF8300003F09BF90100F8
:10577800FFF769F94B46A41901353B607E602C940C
:105788002B95072D01DCFFF721F91BE51C9B3B60DE
:105798001B9B9C467B602B9B6444089301332C9491
:1057A8002B93072B00DD5AE13A000832002900DA72
:1057B80041E3159901338C466444166051602C947A
:1057C8002B93072B01DDFFF70EF908321700FEF7C0
:1057D800F5FF484A2B9B9146102D51DD22004C467F
:1057E800B1465E4603E00837103D102D44DD102118
:1057F800103201333C6079602C922B93072BF2DD39
:10580800414630002AAA03F0F5F9002800D040E408
:105818002C9A2B9B2DAFE7E753460F9C9B0500D492
:1058280014E508CCDBB20C9300230F940D93FFF71B
:10583800D3F9A30500D412E50F9B04CBD2B210E52F
:1058480053460F9C9B0500D416E508CC5BB20C931D
:10585800DB170D930F94FFF7E1F953460F9C9B0557
:1058680000D41AE708CCDBB20C9300230F940D93F5
:10587800A6E6214EFFF71DF8B3464E46A146140092
:105888004A46641901333A607D602C942B93072BA8
:1058980000DDF8E0083720E42D231CAAD376FFF7B3
:1058A80002F8414658462AAA03F0A4F9002801D173
:1058B800FEF7B1FFFFF76AFB06230793C3E6159AC5
:1058C80094466644D31A761B9E4200DC3EE41E00D2
:1058D8003CE40F9C099A08CC069E1A800F94FEF7A8
:1058E8008FFFC046FFFBFFFF0CA9000820A9000896
:1058F80034A90008BCAA0008FCA80008302223AB81
:105908001A70283202245A7053461C43089B632B92
:1059180000DDFAE200233DAE0E9381231698179915
:1059280052465B001A431892002900DA4DE2202201
:10593800129D002395430B95A246050089461993AD
:10594800129B612B00D14FE3412B00D05BE528006F
:1059580024AA494603F012F8FF2300229B05FBF70F
:10596800A9FD0022002304000D00FAF74BFD0028D2
:1059780001D001232493DF4B0793089BB1469C4633
:10598800B44463461393013B149353462197C2468C
:10599800159306E000220023FAF734FD002800D012
:1059A800C1E20022D44B20002900FBF783FD0D0043
:1059B8000400FCF79BFB0700FCF7CEFBB046020097
:1059C8000B0020002900FBF7E1FF4246079B013648
:1059D800DB5D04001370149B0D009B1A1093139B3E
:1059E80011964345D6D1159BD0469A464B46B146AB
:1059F8001E00012313975B42219F149210930022EB
:105A080020002900BD4BFAF717FD002800D052E20C
:105A1800002220002900B94BFAF7F4FC002803D033
:105A2800139BDB0700D546E2109B3022190049443E
:105A3800002B0CDB4B4618001A7001338142FAD157
:105A4800119A109B944601339C4463461193119B11
:105A58009B1B159353460793189B9A46FDE44146B2
:105A680058462AAA03F0C6F8002801D0FFF787FA9B
:105A780024992C9C2B9B2DAA98E64B46986D01F0F7
:105A8800A3FFFEF7DFFD414658462AAA03F0B2F805
:105A9800002801D0FFF773FA2C9C2DAFFFF71DFBF0
:105AA800249B1493DA1C02DB089A934207DD129BAD
:105AB800023B1A00129320239A430B92D8E4149BBA
:105AC800159A934200DAA1E1079A0B93D20703D5FE
